{
  "contractName": "Diorite",
  "abi": [
    {
      "inputs": [],
      "payable": false,
      "stateMutability": "nonpayable",
      "type": "constructor"
    },
    {
      "constant": true,
      "inputs": [
        {
          "internalType": "string",
          "name": "",
          "type": "string"
        }
      ],
      "name": "users",
      "outputs": [
        {
          "internalType": "string",
          "name": "addr",
          "type": "string"
        },
        {
          "internalType": "uint256",
          "name": "dioriteBalance",
          "type": "uint256"
        },
        {
          "internalType": "bool",
          "name": "isValue",
          "type": "bool"
        }
      ],
      "payable": false,
      "stateMutability": "view",
      "type": "function"
    },
    {
      "constant": false,
      "inputs": [
        {
          "internalType": "string",
          "name": "_senderAddr",
          "type": "string"
        },
        {
          "internalType": "string",
          "name": "_receiverAddr",
          "type": "string"
        },
        {
          "internalType": "uint256",
          "name": "_etherAmt",
          "type": "uint256"
        }
      ],
      "name": "send",
      "outputs": [],
      "payable": false,
      "stateMutability": "nonpayable",
      "type": "function"
    },
    {
      "constant": false,
      "inputs": [
        {
          "internalType": "string",
          "name": "_accountAddr",
          "type": "string"
        },
        {
          "internalType": "uint256",
          "name": "_etherAmt",
          "type": "uint256"
        }
      ],
      "name": "buy",
      "outputs": [],
      "payable": false,
      "stateMutability": "nonpayable",
      "type": "function"
    },
    {
      "constant": false,
      "inputs": [
        {
          "internalType": "string",
          "name": "_accountAddr",
          "type": "string"
        }
      ],
      "name": "getBalance",
      "outputs": [
        {
          "internalType": "uint256",
          "name": "",
          "type": "uint256"
        }
      ],
      "payable": false,
      "stateMutability": "nonpayable",
      "type": "function"
    }
  ],
  "bytecode": "0x60806040526040518060600160405280602a8152602001610c8d602a91396000908051906020019061003292919061004d565b5034801561003f57600080fd5b5060006001819055506100f2565b828054600181600116156101000203166002900490600052602060002090601f016020900481019282601f1061008e57805160ff19168380011785556100bc565b828001600101855582156100bc579182015b828111156100bb5782518255916020019190600101906100a0565b5b5090506100c991906100cd565b5090565b6100ef91905b808211156100eb5760008160009055506001016100d3565b5090565b90565b610b8c806101016000396000f3fe608060405234801561001057600080fd5b506004361061004c5760003560e01c80630ca5c504146100515780633a51d24614610116578063689e1c03146101e5578063cd485c281461032b575b600080fd5b6101146004803603604081101561006757600080fd5b810190808035906020019064010000000081111561008457600080fd5b82018360208201111561009657600080fd5b803590602001918460018302840111640100000000831117156100b857600080fd5b91908080601f016020809104026020016040519081016040528093929190818152602001838380828437600081840152601f19601f82011690508083019250505050505050919291929080359060200190929190505050610487565b005b6101cf6004803603602081101561012c57600080fd5b810190808035906020019064010000000081111561014957600080fd5b82018360208201111561015b57600080fd5b8035906020019184600183028401116401000000008311171561017d57600080fd5b91908080601f016020809104026020016040519081016040528093929190818152602001838380828437600081840152601f19601f820116905080830192505050505050509192919290505050610675565b6040518082815260200191505060405180910390f35b61029e600480360360208110156101fb57600080fd5b810190808035906020019064010000000081111561021857600080fd5b82018360208201111561022a57600080fd5b8035906020019184600183028401116401000000008311171561024c57600080fd5b91908080601f016020809104026020016040519081016040528093929190818152602001838380828437600081840152601f19601f82011690508083019250505050505050919291929050505061084e565b604051808060200184815260200183151515158152602001828103825285818151815260200191508051906020019080838360005b838110156102ee5780820151818401526020810190506102d3565b50505050905090810190601f16801561031b5780820380516001836020036101000a031916815260200191505b5094505050505060405180910390f35b6104856004803603606081101561034157600080fd5b810190808035906020019064010000000081111561035e57600080fd5b82018360208201111561037057600080fd5b8035906020019184600183028401116401000000008311171561039257600080fd5b91908080601f016020809104026020016040519081016040528093929190818152602001838380828437600081840152601f19601f820116905080830192505050505050509192919290803590602001906401000000008111156103f557600080fd5b82018360208201111561040757600080fd5b8035906020019184600183028401116401000000008311171561042957600080fd5b91908080601f016020809104026020016040519081016040528093929190818152602001838380828437600081840152601f19601f82011690508083019250505050505050919291929080359060200190929190505050610933565b005b6000811161049457600080fd5b6002826040518082805190602001908083835b602083106104ca57805182526020820191506020810190506020830392506104a7565b6001836020036101000a038019825116818451168082178552505050505050905001915050908152602001604051809103902060020160009054906101000a900460ff166105f757604051806060016040528083815260200160008152602001600115158152506002836040518082805190602001908083835b602083106105675780518252602082019150602081019050602083039250610544565b6001836020036101000a038019825116818451168082178552505050505050905001915050908152602001604051809103902060008201518160000190805190602001906105b6929190610ab2565b506020820151816001015560408201518160020160006101000a81548160ff0219169083151502179055509050506001600081548092919060010191905055505b806002836040518082805190602001908083835b6020831061062e578051825260208201915060208101905060208303925061060b565b6001836020036101000a0380198251168184511680821785525050505050509050019150509081526020016040518091039020600101600082825401925050819055505050565b60006002826040518082805190602001908083835b602083106106ad578051825260208201915060208101905060208303925061068a565b6001836020036101000a038019825116818451168082178552505050505050905001915050908152602001604051809103902060020160009054906101000a900460ff166107da57604051806060016040528083815260200160008152602001600115158152506002836040518082805190602001908083835b6020831061074a5780518252602082019150602081019050602083039250610727565b6001836020036101000a03801982511681845116808217855250505050505090500191505090815260200160405180910390206000820151816000019080519060200190610799929190610ab2565b506020820151816001015560408201518160020160006101000a81548160ff0219169083151502179055509050506001600081548092919060010191905055505b6002826040518082805190602001908083835b6020831061081057805182526020820191506020810190506020830392506107ed565b6001836020036101000a0380198251168184511680821785525050505050509050019150509081526020016040518091039020600101549050919050565b600281805160208101820180518482526020830160208501208183528095505050505050600091509050806000018054600181600116156101000203166002900480601f0160208091040260200160405190810160405280929190818152602001828054600181600116156101000203166002900480156109105780601f106108e557610100808354040283529160200191610910565b820191906000526020600020905b8154815290600101906020018083116108f357829003601f168201915b5050505050908060010154908060020160009054906101000a900460ff16905083565b6000811161094057600080fd5b806002846040518082805190602001908083835b602083106109775780518252602082019150602081019050602083039250610954565b6001836020036101000a03801982511681845116808217855250505050505090500191505090815260200160405180910390206001015410156109b957600080fd5b806002846040518082805190602001908083835b602083106109f057805182526020820191506020810190506020830392506109cd565b6001836020036101000a038019825116818451168082178552505050505050905001915050908152602001604051809103902060010160008282540392505081905550806002836040518082805190602001908083835b60208310610a6a5780518252602082019150602081019050602083039250610a47565b6001836020036101000a038019825116818451168082178552505050505050905001915050908152602001604051809103902060010160008282540192505081905550505050565b828054600181600116156101000203166002900490600052602060002090601f016020900481019282601f10610af357805160ff1916838001178555610b21565b82800160010185558215610b21579182015b82811115610b20578251825591602001919060010190610b05565b5b509050610b2e9190610b32565b5090565b610b5491905b80821115610b50576000816000905550600101610b38565b5090565b9056fea265627a7a723158204a9309e43cc868b13796084eb03c1627c587e3b371c3a228595c4b28ef1e979764736f6c63430005100032307862303633306463346338304138356630614442304538653938353741633645323038353839446462",
  "source": "pragma solidity ^0.5.16;\r\n\r\ncontract Diorite {\r\n    string masterDioriteAddr = \"0xb0630dc4c80A85f0aDB0E8e9857Ac6E208589Ddb\";\r\n\r\n    struct User {\r\n        string addr;\r\n        uint dioriteBalance;\r\n        bool isValue;\r\n    }\r\n\r\n    uint userCount;\r\n\r\n    // Hash map for user\r\n    mapping(string => User) public users;\r\n\r\n    constructor() public {\r\n        userCount = 0;\r\n    }\r\n\r\n\r\n\r\n    function send (string memory _senderAddr, string memory _receiverAddr, uint _etherAmt)\r\n    public\r\n    {\r\n\r\n        // require that the amount is greater than 0\r\n        require(_etherAmt > 0);\r\n\r\n        // require that the sender has enough balance for the transaction\r\n        require(users[_senderAddr].dioriteBalance >= _etherAmt);\r\n\r\n        // require a valid sender\r\n        // require(users[_senderAddr]);\r\n\r\n        // require a valid receiver\r\n        // require(users[_receiverAddr]);\r\n\r\n        // update sender's balance\r\n        users[_senderAddr].dioriteBalance -= _etherAmt;\r\n\r\n        // update receiver's balance\r\n        users[_receiverAddr].dioriteBalance += _etherAmt;\r\n\r\n    }\r\n\r\n    // Exchange Diorite for Ether from Master account to Recipient\r\n    function buy(string memory _accountAddr, uint _etherAmt) public {\r\n\r\n        // require that the amount is greater than 0\r\n        require(_etherAmt > 0);\r\n\r\n        // require a valid receiver\r\n        // require(users[_accountAddr].isValue);\r\n\r\n        // Adds a new user if address does NOT exist\r\n        // Check if address already exist\r\n        if (!users[_accountAddr].isValue)\r\n        {\r\n            users[_accountAddr] = User(_accountAddr, 0, true);  \r\n            userCount++;\r\n        }\r\n        users[_accountAddr].dioriteBalance += _etherAmt;\r\n    }\r\n\r\n    function getBalance(string memory _accountAddr) public returns (uint) {\r\n        // require a valid user\r\n        // require(users[_accountAddr].isValue);\r\n\r\n        // Adds a new user if address does NOT exist\r\n        // Check if address already exist\r\n        if (!users[_accountAddr].isValue)\r\n        {\r\n            users[_accountAddr] = User(_accountAddr, 0, true);  \r\n            userCount++;\r\n        }\r\n        return users[_accountAddr].dioriteBalance;\r\n    }\r\n}",
  "sourcePath": "C:\\Users\\Kevin\\Repos\\diorite_blockchain\\contracts\\Diorite.sol",
  "compiler": {
    "name": "solc",
    "version": "0.5.16+commit.9c3226ce.Emscripten.clang"
  },
  "schemaVersion": "3.4.11",
  "updatedAt": "2022-12-07T02:54:47.775Z",
  "networkType": "ethereum",
  "devdoc": {
    "methods": {}
  },
  "userdoc": {
    "methods": {}
  }
}