{
  "contractName": "Transaction",
  "abi": [
    {
      "inputs": [],
      "payable": false,
      "stateMutability": "nonpayable",
      "type": "constructor"
    },
    {
      "anonymous": false,
      "inputs": [
        {
          "indexed": true,
          "internalType": "uint256",
          "name": "_userId",
          "type": "uint256"
        }
      ],
      "name": "transactionEvent",
      "type": "event"
    },
    {
      "constant": true,
      "inputs": [
        {
          "internalType": "uint256",
          "name": "",
          "type": "uint256"
        }
      ],
      "name": "users",
      "outputs": [
        {
          "internalType": "uint256",
          "name": "id",
          "type": "uint256"
        },
        {
          "internalType": "string",
          "name": "name",
          "type": "string"
        },
        {
          "internalType": "uint256",
          "name": "balance",
          "type": "uint256"
        }
      ],
      "payable": false,
      "stateMutability": "view",
      "type": "function"
    },
    {
      "constant": true,
      "inputs": [],
      "name": "usersCount",
      "outputs": [
        {
          "internalType": "uint256",
          "name": "",
          "type": "uint256"
        }
      ],
      "payable": false,
      "stateMutability": "view",
      "type": "function"
    },
    {
      "constant": false,
      "inputs": [
        {
          "internalType": "string",
          "name": "_name",
          "type": "string"
        }
      ],
      "name": "getUserID",
      "outputs": [
        {
          "internalType": "uint256",
          "name": "",
          "type": "uint256"
        }
      ],
      "payable": false,
      "stateMutability": "nonpayable",
      "type": "function"
    },
    {
      "constant": false,
      "inputs": [
        {
          "internalType": "string",
          "name": "_name",
          "type": "string"
        }
      ],
      "name": "addUser",
      "outputs": [
        {
          "internalType": "bool",
          "name": "",
          "type": "bool"
        }
      ],
      "payable": false,
      "stateMutability": "nonpayable",
      "type": "function"
    },
    {
      "constant": false,
      "inputs": [
        {
          "internalType": "uint256",
          "name": "_senderId",
          "type": "uint256"
        },
        {
          "internalType": "uint256",
          "name": "_receiverId",
          "type": "uint256"
        },
        {
          "internalType": "uint256",
          "name": "_amount",
          "type": "uint256"
        }
      ],
      "name": "send",
      "outputs": [],
      "payable": false,
      "stateMutability": "nonpayable",
      "type": "function"
    }
  ],
  "bytecode": "0x60806040523480156200001157600080fd5b50620000586040518060400160405280600581526020017f55736572310000000000000000000000000000000000000000000000000000008152506200019760201b60201c565b506200009f6040518060400160405280600581526020017f55736572320000000000000000000000000000000000000000000000000000008152506200019760201b60201c565b50620000e66040518060400160405280600581526020017f55736572330000000000000000000000000000000000000000000000000000008152506200019760201b60201c565b5060006200012f6040518060400160405280600581526020017f55736572310000000000000000000000000000000000000000000000000000008152506200035f60201b60201c565b90506000620001796040518060400160405280600581526020017f55736572320000000000000000000000000000000000000000000000000000008152506200035f60201b60201c565b90506200018f82826032620004a460201b60201c565b505062000636565b6000806001905060008090505b6001548111620002d357836040516020018082805190602001908083835b60208310620001e75780518252602082019150602081019050602083039250620001c2565b6001836020036101000a038019825116818451168082178552505050505050905001915050604051602081830303815290604052805190602001206000808381526020019081526020016000206001016040516020018082805460018160011615610100020316600290048015620002995780601f106200027657610100808354040283529182019162000299565b820191906000526020600020905b81548152906001019060200180831162000284575b5050915050604051602081830303815290604052805190602001201415620002c55760009150620002d3565b8080600101915050620001a4565b508015620003565760016000815480929190600101919050555060405180606001604052806001548152602001848152602001603281525060008060015481526020019081526020016000206000820151816000015560208201518160010190805190602001906200034792919062000587565b50604082015181600201559050505b80915050919050565b6000806000905060008090505b60015481116200049a57836040516020018082805190602001908083835b60208310620003af57805182526020820191506020810190506020830392506200038a565b6001836020036101000a038019825116818451168082178552505050505050905001915050604051602081830303815290604052805190602001206000808381526020019081526020016000206001016040516020018082805460018160011615610100020316600290048015620004615780601f106200043e57610100808354040283529182019162000461565b820191906000526020600020905b8154815290600101906020018083116200044c575b50509150506040516020818303038152906040528051906020012014156200048c578091506200049a565b80806001019150506200036c565b5080915050919050565b60008111620004b257600080fd5b80600080858152602001908152602001600020600201541015620004d557600080fd5b600083118015620004e857506001548311155b620004f257600080fd5b6000821180156200050557506001548211155b6200050f57600080fd5b80600080858152602001908152602001600020600201600082825403925050819055508060008084815260200190815260200160002060020160008282540192505081905550827f9627c1261643c05e529f66bb30ad8c6789ec43a8238bfdfb27603872fec36dac60405160405180910390a2505050565b828054600181600116156101000203166002900490600052602060002090601f016020900481019282601f10620005ca57805160ff1916838001178555620005fb565b82800160010185558215620005fb579182015b82811115620005fa578251825591602001919060010190620005dd565b5b5090506200060a91906200060e565b5090565b6200063391905b808211156200062f57600081600090555060010162000615565b5090565b90565b61088880620006466000396000f3fe608060405234801561001057600080fd5b50600436106100575760003560e01c806318b8275a1461005c578063365b98b21461012f578063614358e8146101e45780636ba13a82146102b3578063c709da01146102d1575b600080fd5b6101156004803603602081101561007257600080fd5b810190808035906020019064010000000081111561008f57600080fd5b8201836020820111156100a157600080fd5b803590602001918460018302840111640100000000831117156100c357600080fd5b91908080601f016020809104026020016040519081016040528093929190818152602001838380828437600081840152601f19601f820116905080830192505050505050509192919290505050610313565b604051808215151515815260200191505060405180910390f35b61015b6004803603602081101561014557600080fd5b81019080803590602001909291905050506104ce565b6040518084815260200180602001838152602001828103825284818151815260200191508051906020019080838360005b838110156101a757808201518184015260208101905061018c565b50505050905090810190601f1680156101d45780820380516001836020036101000a031916815260200191505b5094505050505060405180910390f35b61029d600480360360208110156101fa57600080fd5b810190808035906020019064010000000081111561021757600080fd5b82018360208201111561022957600080fd5b8035906020019184600183028401116401000000008311171561024b57600080fd5b91908080601f016020809104026020016040519081016040528093929190818152602001838380828437600081840152601f19601f820116905080830192505050505050509192919290505050610590565b6040518082815260200191505060405180910390f35b6102bb6106cb565b6040518082815260200191505060405180910390f35b610311600480360360608110156102e757600080fd5b810190808035906020019092919080359060200190929190803590602001909291905050506106d1565b005b6000806001905060008090505b600154811161044557836040516020018082805190602001908083835b60208310610360578051825260208201915060208101905060208303925061033d565b6001836020036101000a03801982511681845116808217855250505050505090500191505060405160208183030381529060405280519060200120600080838152602001908152602001600020600101604051602001808280546001816001161561010002031660029004801561040e5780601f106103ec57610100808354040283529182019161040e565b820191906000526020600020905b8154815290600101906020018083116103fa575b50509150506040516020818303038152906040528051906020012014156104385760009150610445565b8080600101915050610320565b5080156104c55760016000815480929190600101919050555060405180606001604052806001548152602001848152602001603281525060008060015481526020019081526020016000206000820151816000015560208201518160010190805190602001906104b69291906107ae565b50604082015181600201559050505b80915050919050565b6000602052806000526040600020600091509050806000015490806001018054600181600116156101000203166002900480601f0160208091040260200160405190810160405280929190818152602001828054600181600116156101000203166002900480156105805780601f1061055557610100808354040283529160200191610580565b820191906000526020600020905b81548152906001019060200180831161056357829003601f168201915b5050505050908060020154905083565b6000806000905060008090505b60015481116106c157836040516020018082805190602001908083835b602083106105dd57805182526020820191506020810190506020830392506105ba565b6001836020036101000a03801982511681845116808217855250505050505090500191505060405160208183030381529060405280519060200120600080838152602001908152602001600020600101604051602001808280546001816001161561010002031660029004801561068b5780601f1061066957610100808354040283529182019161068b565b820191906000526020600020905b815481529060010190602001808311610677575b50509150506040516020818303038152906040528051906020012014156106b4578091506106c1565b808060010191505061059d565b5080915050919050565b60015481565b600081116106de57600080fd5b8060008085815260200190815260200160002060020154101561070057600080fd5b60008311801561071257506001548311155b61071b57600080fd5b60008211801561072d57506001548211155b61073657600080fd5b80600080858152602001908152602001600020600201600082825403925050819055508060008084815260200190815260200160002060020160008282540192505081905550827f9627c1261643c05e529f66bb30ad8c6789ec43a8238bfdfb27603872fec36dac60405160405180910390a2505050565b828054600181600116156101000203166002900490600052602060002090601f016020900481019282601f106107ef57805160ff191683800117855561081d565b8280016001018555821561081d579182015b8281111561081c578251825591602001919060010190610801565b5b50905061082a919061082e565b5090565b61085091905b8082111561084c576000816000905550600101610834565b5090565b9056fea265627a7a72315820ce246025868e31bccb188991ab49b4196c6cc4169968e4c27c89de5af86f60d564736f6c63430005100032",
  "source": "pragma solidity >=0.4.22 <0.8.0;\r\n\r\ncontract Transaction {\r\n    // Model a User\r\n    struct User {\r\n        // address id;\r\n        uint id;\r\n        string name;\r\n        uint balance;\r\n    }\r\n\r\n\r\n    // Read/write users\r\n    mapping(uint => User) public users;\r\n\r\n    // searches for a user account by given username then return that account's ID\r\n    function getUserID (string memory _name) public returns (uint) {\r\n        uint userID = 0;\r\n\r\n        for (uint i = 0; i <= usersCount; i++)\r\n        {\r\n            if (keccak256(abi.encodePacked(users[i].name)) == keccak256(abi.encodePacked(_name))) {\r\n                userID = i;\r\n                break;\r\n            }\r\n        }\r\n\r\n        return userID;\r\n    }\r\n\r\n\r\n    // Store users Count\r\n    uint public usersCount;\r\n\r\n\r\n    event transactionEvent (\r\n        uint indexed _userId\r\n    );\r\n\r\n\r\n    constructor() public {\r\n        addUser(\"User1\");\r\n        addUser(\"User2\");\r\n        addUser(\"User3\");\r\n        uint user1ID = getUserID(\"User1\");\r\n        uint user2ID = getUserID(\"User2\");\r\n\r\n        send(user1ID, user2ID, 50);\r\n    }\r\n\r\n\r\n    function addUser (string memory _name) public returns (bool) {\r\n        bool valid = true;\r\n        for (uint i = 0; i <= usersCount; i++) {\r\n            // requre that user's name is unique\r\n            if (keccak256(abi.encodePacked(users[i].name)) == keccak256(abi.encodePacked(_name))) {\r\n                valid = false;\r\n                break;\r\n            }    \r\n        }\r\n\r\n        if (valid)\r\n        {\r\n            usersCount++;\r\n            users[usersCount] = User(usersCount, _name, 50);\r\n        }\r\n        \r\n        return valid;\r\n    }\r\n\r\n\r\n    function send (uint _senderId, uint _receiverId, uint _amount) public {\r\n        // require that the amount is greater than 0\r\n        require(_amount > 0);\r\n\r\n        // require that the sender has enough balance for the transaction\r\n        require(users[_senderId].balance >= _amount);\r\n\r\n        // require a valid sender\r\n        require(_senderId > 0 && _senderId <= usersCount);\r\n\r\n        // require a valid receiver\r\n        require(_receiverId > 0 && _receiverId <= usersCount);\r\n\r\n        // update sender's balance\r\n        users[_senderId].balance -= _amount;\r\n\r\n        // update receiver's balance\r\n        users[_receiverId].balance += _amount;\r\n\r\n        // trigger transaction event\r\n        emit transactionEvent(_senderId);\r\n    }\r\n}\r\n",
  "sourcePath": "C:\\Users\\Kevin\\Repos\\diorite_blockchain\\contracts\\old_Transaction.sol",
  "compiler": {
    "name": "solc",
    "version": "0.5.16+commit.9c3226ce.Emscripten.clang"
  },
  "schemaVersion": "3.4.11",
  "updatedAt": "2022-12-03T06:54:30.406Z",
  "devdoc": {
    "methods": {}
  },
  "userdoc": {
    "methods": {}
  }
}